:100000000C9461000C9473000C9473000C947300B6
:100010000C9473000C9473000C9473000C94730094
:100020000C9473000C9473000C9473000C94730084
:100030000C9473000C9473000C9473000C94730074
:100040000C9454010C9473000C9473000C94730082
:100050000C9473000C9473000C9473000C94730054
:100060000C9473000C947300000000002300260021
:10007000290000000000240027002A0000000000E2
:10008000250028002B0004040404040404040202D4
:100090000202020203030303030301020408102007
:1000A0004080010204081020010204081020000012
:1000B0000008000201000003040700000000000027
:1000C000000011241FBECFEFD8E0DEBFCDBF21E07E
:1000D000A0E0B1E001C01D92A131B207E1F70E949A
:1000E0009E010C9478020C940000833081F028F477
:1000F000813099F08230A9F008958730A9F08830D6
:10010000C9F08430B1F4809180008F7D03C080916C
:1001100080008F7780938000089584B58F7784BDA9
:10012000089584B58F7DFBCF8091B0008F77809349
:10013000B00008958091B0008F7DF9CF1F93CF93C9
:10014000DF93282F30E0F901E255FF4F8491F90148
:10015000E656FF4FD491F901EA57FF4FC491CC23E3
:10016000A9F0162F81110E947500EC2FF0E0EE0F20
:10017000FF1FE458FF4FA591B4918FB7F894EC910D
:10018000111108C0D095DE23DC938FBFDF91CF9192
:100190001F910895DE2BF8CFCF93DF9390E0FC0101
:1001A000E656FF4F24918A579F4FFC018491882384
:1001B000D1F090E0880F991FFC01EE58FF4FA591F8
:1001C000B491FC01E458FF4FC591D49161110EC068
:1001D0009FB7F8948C91E22FE0958E238C93288121
:1001E000E223E8839FBFDF91CF9108958FB7F89402
:1001F000EC91E22BEC938FBFF6CF3FB7F894809150
:100200000D0190910E01A0910F01B091100126B542
:10021000A89B05C02F3F19F00196A11DB11D3FBF3E
:10022000BA2FA92F982F8827BC01CD01620F711D0D
:10023000811D911D42E0660F771F881F991F4A9507
:10024000D1F708958F929F92AF92BF92CF92DF9293
:10025000EF92FF924B015C010E94FD006B017C015B
:100260000E94FD006C197D098E099F09683E73404C
:1002700081059105A8F321E0821A9108A108B1082F
:1002800088EEC80E83E0D81EE11CF11C8114910495
:10029000A104B10429F7FF90EF90DF90CF90BF90B9
:1002A000AF909F908F9008951F920F920FB60F926C
:1002B00011242F933F938F939F93AF93BF9380917C
:1002C000090190910A01A0910B01B0910C013091AC
:1002D000080123E0230F2D3758F50196A11DB11D0C
:1002E000209308018093090190930A01A0930B01C8
:1002F000B0930C0180910D0190910E01A0910F011E
:10030000B09110010196A11DB11D80930D01909334
:100310000E01A0930F01B0931001BF91AF919F9177
:100320008F913F912F910F900FBE0F901F901895B6
:1003300026E8230F0296A11DB11DD2CF789484B573
:10034000826084BD84B5816084BD85B5826085BDD1
:1003500085B5816085BD80916E00816080936E005F
:100360001092810080918100826080938100809151
:100370008100816080938100809180008160809302
:1003800080008091B10084608093B1008091B000C2
:1003900081608093B00080917A00846080937A00BD
:1003A00080917A00826080937A0080917A008160E7
:1003B00080937A0080917A00806880937A0010920E
:1003C000C10061E082E00E94CC0061E083E00E9415
:1003D000CC0061E084E00E94CC0061E085E00E94F6
:1003E000CC0060E086E00E94CC0060E087E00E94E4
:1003F000CC0060E088E00E94CC0060E089E00E94D0
:10040000CC0061E08DE00E94CC00C7EBD0E003EAB5
:1004100010E09FE8E92E90E0F92E20E0C22E20E0C7
:10042000D22EAA24A394B12C61E08DE00E949E00FC
:100430006AE070E080E090E00E94220160E08DE0E0
:100440000E949E00FE018491F8019490F70184902F
:10045000882009F43CC081110E947500E82DF0E06D
:10046000EE0FFF1FE859FF4FA591B4918C91982290
:1004700071F110920701109206011092050110927D
:1004800004011092030110920201109201011092D6
:1004900000016091000182E00E949E0060E083E024
:1004A0000E949E0060E084E00E949E0060E085E083
:1004B0000E949E0068EE73E080E090E00E942201BE
:1004C000C114D10409F4B0CF0E940000ADCF109246
:1004D000070110920601109205011092040110927A
:1004E000030110920201B0920101A0920001D1CF4C
:0404F000F894FFCFAE
:00000001FF
